{
  "_format": "hh-sol-artifact-1",
  "contractName": "EventManager",
  "sourceName": "contracts/EventManager.sol",
  "abi": [
    {
      "anonymous": false,
      "inputs": [
        {
          "indexed": false,
          "internalType": "uint256",
          "name": "eventId",
          "type": "uint256"
        },
        {
          "indexed": false,
          "internalType": "string",
          "name": "title",
          "type": "string"
        },
        {
          "indexed": false,
          "internalType": "string",
          "name": "description",
          "type": "string"
        },
        {
          "indexed": false,
          "internalType": "int64",
          "name": "date",
          "type": "int64"
        },
        {
          "indexed": false,
          "internalType": "string",
          "name": "location",
          "type": "string"
        },
        {
          "indexed": true,
          "internalType": "address",
          "name": "organizer",
          "type": "address"
        },
        {
          "indexed": false,
          "internalType": "uint256",
          "name": "ticketPrice",
          "type": "uint256"
        }
      ],
      "name": "EventCreated",
      "type": "event"
    },
    {
      "inputs": [
        {
          "internalType": "string",
          "name": "title",
          "type": "string"
        },
        {
          "internalType": "string",
          "name": "description",
          "type": "string"
        },
        {
          "internalType": "int64",
          "name": "date",
          "type": "int64"
        },
        {
          "internalType": "string",
          "name": "location",
          "type": "string"
        },
        {
          "internalType": "uint256",
          "name": "ticketPrice",
          "type": "uint256"
        }
      ],
      "name": "createEvent",
      "outputs": [],
      "stateMutability": "nonpayable",
      "type": "function"
    },
    {
      "inputs": [],
      "name": "eventCount",
      "outputs": [
        {
          "internalType": "uint256",
          "name": "",
          "type": "uint256"
        }
      ],
      "stateMutability": "view",
      "type": "function"
    },
    {
      "inputs": [
        {
          "internalType": "uint256",
          "name": "",
          "type": "uint256"
        }
      ],
      "name": "events",
      "outputs": [
        {
          "internalType": "string",
          "name": "title",
          "type": "string"
        },
        {
          "internalType": "string",
          "name": "description",
          "type": "string"
        },
        {
          "internalType": "int64",
          "name": "date",
          "type": "int64"
        },
        {
          "internalType": "string",
          "name": "location",
          "type": "string"
        },
        {
          "internalType": "address",
          "name": "organizer",
          "type": "address"
        },
        {
          "internalType": "uint256",
          "name": "ticketPrice",
          "type": "uint256"
        }
      ],
      "stateMutability": "view",
      "type": "function"
    },
    {
      "inputs": [
        {
          "internalType": "uint256",
          "name": "eventId",
          "type": "uint256"
        }
      ],
      "name": "getEvent",
      "outputs": [
        {
          "components": [
            {
              "internalType": "string",
              "name": "title",
              "type": "string"
            },
            {
              "internalType": "string",
              "name": "description",
              "type": "string"
            },
            {
              "internalType": "int64",
              "name": "date",
              "type": "int64"
            },
            {
              "internalType": "string",
              "name": "location",
              "type": "string"
            },
            {
              "internalType": "address",
              "name": "organizer",
              "type": "address"
            },
            {
              "internalType": "uint256",
              "name": "ticketPrice",
              "type": "uint256"
            }
          ],
          "internalType": "struct EventManager.Event",
          "name": "",
          "type": "tuple"
        }
      ],
      "stateMutability": "view",
      "type": "function"
    }
  ],
  "bytecode": "0x6080604052348015600f57600080fd5b506110a58061001f6000396000f3fe608060405234801561001057600080fd5b506004361061004c5760003560e01c80630b791430146100515780636d1884e01461008657806371be2e4a146100b6578063f8c059d3146100d4575b600080fd5b61006b6004803603810190610066919061078a565b6100f0565b60405161007d969594939291906108b3565b60405180910390f35b6100a0600480360381019061009b919061078a565b6102f1565b6040516100ad9190610a37565b60405180910390f35b6100be610551565b6040516100cb9190610a59565b60405180910390f35b6100ee60048036038101906100e99190610bd5565b610557565b005b600160205280600052604060002060009150905080600001805461011390610cd3565b80601f016020809104026020016040519081016040528092919081815260200182805461013f90610cd3565b801561018c5780601f106101615761010080835404028352916020019161018c565b820191906000526020600020905b81548152906001019060200180831161016f57829003601f168201915b5050505050908060010180546101a190610cd3565b80601f01602080910402602001604051908101604052809291908181526020018280546101cd90610cd3565b801561021a5780601f106101ef5761010080835404028352916020019161021a565b820191906000526020600020905b8154815290600101906020018083116101fd57829003601f168201915b5050505050908060020160009054906101000a900460070b9080600301805461024290610cd3565b80601f016020809104026020016040519081016040528092919081815260200182805461026e90610cd3565b80156102bb5780601f10610290576101008083540402835291602001916102bb565b820191906000526020600020905b81548152906001019060200180831161029e57829003601f168201915b5050505050908060040160009054906101000a900473ffffffffffffffffffffffffffffffffffffffff16908060050154905086565b6102f96106f1565b600160008381526020019081526020016000206040518060c001604052908160008201805461032790610cd3565b80601f016020809104026020016040519081016040528092919081815260200182805461035390610cd3565b80156103a05780601f10610375576101008083540402835291602001916103a0565b820191906000526020600020905b81548152906001019060200180831161038357829003601f168201915b505050505081526020016001820180546103b990610cd3565b80601f01602080910402602001604051908101604052809291908181526020018280546103e590610cd3565b80156104325780601f1061040757610100808354040283529160200191610432565b820191906000526020600020905b81548152906001019060200180831161041557829003601f168201915b505050505081526020016002820160009054906101000a900460070b60070b60070b815260200160038201805461046890610cd3565b80601f016020809104026020016040519081016040528092919081815260200182805461049490610cd3565b80156104e15780601f106104b6576101008083540402835291602001916104e1565b820191906000526020600020905b8154815290600101906020018083116104c457829003601f168201915b505050505081526020016004820160009054906101000a900473ffffffffffffffffffffffffffffffffffffffff1673ffffffffffffffffffffffffffffffffffffffff1673ffffffffffffffffffffffffffffffffffffffff1681526020016005820154815250509050919050565b60005481565b60008081548092919061056990610d33565b91905055506040518060c001604052808681526020018581526020018460070b81526020018381526020013373ffffffffffffffffffffffffffffffffffffffff16815260200182815250600160008054815260200190815260200160002060008201518160000190816105dd9190610f27565b5060208201518160010190816105f39190610f27565b5060408201518160020160006101000a81548167ffffffffffffffff021916908360070b67ffffffffffffffff160217905550606082015181600301908161063b9190610f27565b5060808201518160040160006101000a81548173ffffffffffffffffffffffffffffffffffffffff021916908373ffffffffffffffffffffffffffffffffffffffff16021790555060a082015181600501559050503373ffffffffffffffffffffffffffffffffffffffff167fe7ca8bf08321c61c592177b5c6c6c75586194d8563831a07ae67b7c9cb94b6ed60005487878787876040516106e296959493929190610ff9565b60405180910390a25050505050565b6040518060c001604052806060815260200160608152602001600060070b815260200160608152602001600073ffffffffffffffffffffffffffffffffffffffff168152602001600081525090565b6000604051905090565b600080fd5b600080fd5b6000819050919050565b61076781610754565b811461077257600080fd5b50565b6000813590506107848161075e565b92915050565b6000602082840312156107a05761079f61074a565b5b60006107ae84828501610775565b91505092915050565b600081519050919050565b600082825260208201905092915050565b60005b838110156107f15780820151818401526020810190506107d6565b60008484015250505050565b6000601f19601f8301169050919050565b6000610819826107b7565b61082381856107c2565b93506108338185602086016107d3565b61083c816107fd565b840191505092915050565b60008160070b9050919050565b61085d81610847565b82525050565b600073ffffffffffffffffffffffffffffffffffffffff82169050919050565b600061088e82610863565b9050919050565b61089e81610883565b82525050565b6108ad81610754565b82525050565b600060c08201905081810360008301526108cd818961080e565b905081810360208301526108e1818861080e565b90506108f06040830187610854565b8181036060830152610902818661080e565b90506109116080830185610895565b61091e60a08301846108a4565b979650505050505050565b600082825260208201905092915050565b6000610945826107b7565b61094f8185610929565b935061095f8185602086016107d3565b610968816107fd565b840191505092915050565b61097c81610847565b82525050565b61098b81610883565b82525050565b61099a81610754565b82525050565b600060c08301600083015184820360008601526109bd828261093a565b915050602083015184820360208601526109d7828261093a565b91505060408301516109ec6040860182610973565b5060608301518482036060860152610a04828261093a565b9150506080830151610a196080860182610982565b5060a0830151610a2c60a0860182610991565b508091505092915050565b60006020820190508181036000830152610a5181846109a0565b905092915050565b6000602082019050610a6e60008301846108a4565b92915050565b600080fd5b600080fd5b7f4e487b7100000000000000000000000000000000000000000000000000000000600052604160045260246000fd5b610ab6826107fd565b810181811067ffffffffffffffff82111715610ad557610ad4610a7e565b5b80604052505050565b6000610ae8610740565b9050610af48282610aad565b919050565b600067ffffffffffffffff821115610b1457610b13610a7e565b5b610b1d826107fd565b9050602081019050919050565b82818337600083830152505050565b6000610b4c610b4784610af9565b610ade565b905082815260208101848484011115610b6857610b67610a79565b5b610b73848285610b2a565b509392505050565b600082601f830112610b9057610b8f610a74565b5b8135610ba0848260208601610b39565b91505092915050565b610bb281610847565b8114610bbd57600080fd5b50565b600081359050610bcf81610ba9565b92915050565b600080600080600060a08688031215610bf157610bf061074a565b5b600086013567ffffffffffffffff811115610c0f57610c0e61074f565b5b610c1b88828901610b7b565b955050602086013567ffffffffffffffff811115610c3c57610c3b61074f565b5b610c4888828901610b7b565b9450506040610c5988828901610bc0565b935050606086013567ffffffffffffffff811115610c7a57610c7961074f565b5b610c8688828901610b7b565b9250506080610c9788828901610775565b9150509295509295909350565b7f4e487b7100000000000000000000000000000000000000000000000000000000600052602260045260246000fd5b60006002820490506001821680610ceb57607f821691505b602082108103610cfe57610cfd610ca4565b5b50919050565b7f4e487b7100000000000000000000000000000000000000000000000000000000600052601160045260246000fd5b6000610d3e82610754565b91507fffffffffffffffffffffffffffffffffffffffffffffffffffffffffffffffff8203610d7057610d6f610d04565b5b600182019050919050565b60008190508160005260206000209050919050565b60006020601f8301049050919050565b600082821b905092915050565b600060088302610ddd7fffffffffffffffffffffffffffffffffffffffffffffffffffffffffffffffff82610da0565b610de78683610da0565b95508019841693508086168417925050509392505050565b6000819050919050565b6000610e24610e1f610e1a84610754565b610dff565b610754565b9050919050565b6000819050919050565b610e3e83610e09565b610e52610e4a82610e2b565b848454610dad565b825550505050565b600090565b610e67610e5a565b610e72818484610e35565b505050565b5b81811015610e9657610e8b600082610e5f565b600181019050610e78565b5050565b601f821115610edb57610eac81610d7b565b610eb584610d90565b81016020851015610ec4578190505b610ed8610ed085610d90565b830182610e77565b50505b505050565b600082821c905092915050565b6000610efe60001984600802610ee0565b1980831691505092915050565b6000610f178383610eed565b9150826002028217905092915050565b610f30826107b7565b67ffffffffffffffff811115610f4957610f48610a7e565b5b610f538254610cd3565b610f5e828285610e9a565b600060209050601f831160018114610f915760008415610f7f578287015190505b610f898582610f0b565b865550610ff1565b601f198416610f9f86610d7b565b60005b82811015610fc757848901518255600182019150602085019450602081019050610fa2565b86831015610fe45784890151610fe0601f891682610eed565b8355505b6001600288020188555050505b505050505050565b600060c08201905061100e60008301896108a4565b8181036020830152611020818861080e565b90508181036040830152611034818761080e565b90506110436060830186610854565b8181036080830152611055818561080e565b905061106460a08301846108a4565b97965050505050505056fea2646970667358221220df955303e8b95270ad5e490b494b85b7089a587dad33e6e0b748b545049e357364736f6c634300081c0033",
  "linkReferences": {},
  "deployedLinkReferences": {}
}